:100000000C9491000C94B9000C94B9000C94B900B4
:100010000C94B9000C94B9000C94B9000C94B9007C
:100020000C94B9000C94B9000C94B9000C94B9006C
:100030000C94B9000C94B9000C94B9000C94B9005C
:100040000C94FC080C94B9000C94B9000C94B90001
:100050000C94B9000C94B9000C94B9000C94B9003C
:100060000C94B9000C94B9000C94B9000C94B9002C
:100070000C94B9000C94B9000C94B9000C94B9001C
:100080000C94B9000C94B9000C94B9000C94B9000C
:100090000C94B9000C94B9000C94B9000C94B900FC
:1000A0000C94B9000C94B9000C94B9000C94B900EC
:1000B0000C94B90000000000240027002A002D0045
:1000C000000000002300260029002C000000000092
:1000D000250028002B002E0004040404040202055D
:1000E00005040404020202020505030303030303DB
:1000F00002012040800102020110080404081020BF
:1001000004080102201008040C0902010000030089
:100110000000080D040700000000000000000000BF
:10012000780F11241FBECFEFD8E0DEBFCDBF16E0A1
:10013000A0E0B1E0ECECF5E202C005900D92A8372A
:10014000B107D9F726E0A8E7B6E001C01D92A439AF
:10015000B207E1F710E0C1E9D0E004C02197FE0149
:100160000E94E50FC039D107C9F70E9442090C94DB
:10017000E4120C94000081508D3008F03DC0E82F4F
:10018000F0E0EB53FF4F0C94E50FDC00E000D200F1
:10019000D800FC00FC00E300E900ED00F300FC00E7
:1001A000F700FD00809180008F7780938000089594
:1001B000809180008F7DF9CF84B58F7784BD0895BD
:1001C00084B58F7DFBCF8091B0008F778093B00096
:1001D00008958091B0008F7DF9CF809190008F7746
:1001E000809390000895809190008F7DF9CF809149
:1001F000A0008F778093A00008958091A0008F7D4C
:10020000F9CF1F93CF93DF93E0E1F1E09491E8EF12
:10021000F0E0D491E0EEF0E0C491CC23B9F0182FD7
:10022000992319F0892F0E94BB00EC2FF0E0EE0F0C
:10023000FF1FE453FF4FA591B4918FB7F894EC9151
:10024000111108C0D095DE23DC938FBFDF91CF91D1
:100250001F910895DE2BF8CFCF93DF93282F30E046
:10026000F901E85FFE4F8491F901E051FF4FD4910D
:10027000F901E852FF4FC491CC23A1F081110E94F3
:10028000BB00EC2FF0E0EE0FFF1FE054FF4FA591F5
:10029000B491EC91ED2381E090E009F480E0DF91EE
:1002A000CF91089580E090E0FACFCF93DF9390E074
:1002B000FC01E051FF4F249188529F4FFC01849133
:1002C0008823C9F090E0880F991FFC01EC54FF4F80
:1002D000A591B491FC01E453FF4FC591D4916111F4
:1002E0000DC09FB7F8948C91209582238C938881C0
:1002F000282328839FBFDF91CF910895623051F466
:100300009FB7F8943C91822F809583238C93E8814A
:100310002E2BEFCF8FB7F894EC912E2B2C938FBF11
:10032000EACF00000000000000009C0127503109C6
:10033000880F991F880F991F820F931F0197F1F75C
:100340000895CF92DF92EF92FF920F931F93CF9376
:10035000DF9388E0E82EF12C00E0DD24D3941091A7
:100360008606C0918706D0918806F8948981812BF2
:1003700089838A81C12EC0948C218A838AE090E08F
:100380000E94910189818C2189838AE090E00E94FA
:10039000910188811823789485E390E00E9491016F
:1003A00011110D29DD0C81E0E81AF108C1F6802F4A
:1003B000DF91CF911F910F91FF90EF90DF90CF9041
:1003C0000895DF92EF92FF920F931F93CF93DF93E5
:1003D000D82E88E0E82EF12C01E010918606C0911D
:1003E0008706D0918806912F90958D2D802399F1C5
:1003F000F8948A8189238A838981812B89838CE07F
:1004000090E00E9491018A81182B1A83789488E7E2
:1004100090E00E949101000F81E0E81AF108E9F6EE
:10042000F894E0918706F091880691818091860684
:10043000809598239183E0918706F09188069281B8
:10044000892382837894DF91CF911F910F91FF9040
:10045000EF90DF900895F8948A8189238A838981B7
:10046000812B898384E690E00E9491018A81182B78
:100470001A8378948EE190E0CCCFFF920F931F9374
:10048000CF93DF9310918606C0918706D09188069E
:10049000F8948981012F00958023898378948DE7D2
:1004A000F82EFA94FF2061F182E090E00E94910121
:1004B00088818123B1F3F8948A8180238A8389819A
:1004C000812B898378948EEE92E00E949101F894BA
:1004D00089818023898386E490E00E94910188814C
:1004E0001823C1E009F0C0E078948AE991E00E9405
:1004F00091018C2FDF91CF911F910F91FF90089563
:10050000C0E0F7CF9FB7F8944091820650918306E0
:10051000609184067091850686B5A89B06C08F3FC2
:1005200021F04F5F5F4F6F4F7F4F9FBF2227342FC8
:10053000452F562F280F311D411D511DA3E0B0E05E
:100540000E94EB0F08958F929F92AF92BF92CF922D
:10055000DF92EF92FF924B015C010E9482026B01DD
:100560007C010E9482026C197D098E099F09683EF8
:10057000734081059105A8F321E0821A9108A10832
:10058000B10888EEC80E83E0D81EE11CF11C81146E
:100590009104A104B10429F7FF90EF90DF90CF9070
:1005A000BF90AF909F908F900895662369F0419A15
:1005B000429898E0459887FF09C0439A880F459A6A
:1005C0009150C1F7429A08954198F2CF4398F6CFDF
:1005D00060E00C94D502CF92DF92EF92FF920F93DE
:1005E0001F93CF93DF936B0110E0082F006BF60190
:1005F000C1916F01C11109C0DF91CF911F910F917E
:10060000FF90EF90DF90CF9008951E37A9F3802FD1
:100610000E94E802812F82958F7080610E94E8021B
:10062000812F8F700E94E802C0320CF4C0E286E095
:10063000C802E0011124F12CE12CFE01EE0DFF1D9A
:10064000E55BFF4F61E080810E94D502EFEFEE1A7B
:10065000FE0AF6E0EF16F10481F761E080E00E9407
:10066000D502195FC4CFCF93DF93C0E08C2F806B8E
:100670000E94E80280E10E94E80280E00E94E80215
:10068000D4E861E080E00E94D502D150D1F7CF5F7D
:10069000C43061F7DF91CF910895CF93C82F0E94A6
:1006A0002C01892B19F080E0CF9108956EE170E064
:1006B00080E090E00E94A3028C2F0E942C01892BE5
:1006C00091F78C2F0E942C01892BD9F36EE170E0F9
:1006D00080E090E00E94A30281E0E6CFAF92BF925B
:1006E000CF92DF92EF92FF920F931F93CF93DF93FE
:1006F0005C01E62E6A01022F0E943D0280E991E032
:100700000E9491018CEC0E94E101E501F12CCE01E7
:100710008A199B098E159F0584F0E60110E0CE0131
:100720008C199D098017910784F48AE590E00E9456
:1007300091010E94A1018993F2CF8AE590E00E9485
:10074000910189910E94E101E2CFDF91CF911F9148
:100750000F91FF90EF90DF90CF90BF90AF900895F2
:100760008F929F92AF92BF92CF92DF92EF92FF92C1
:100770000F931F93CF93DF934C01A62E7A01022F84
:100780000E943D0280E991E00E94910183E30E9472
:10079000E101E701289667018AE590E00E94910156
:1007A0000E94A101F60181936F01EC17FD07A1F7EB
:1007B0006401B12CC601881999098A159B058CF032
:1007C00010E0095F1F4FCE018E199F090817190706
:1007D00094F08AE590E00E9491010E94A101899322
:1007E000F2CF8AE590E00E949101F60181916F01BC
:1007F0000E94E101DFCFDF91CF911F910F91FF9018
:10080000EF90DF90CF90BF90AF909F908F90089522
:100810002F923F924F925F926F927F928F929F9210
:10082000AF92BF92CF92DF92EF92FF920F931F93FE
:10083000CF93DF93CDB7DEB7C057D1090FB6F89489
:10084000DEBF0FBECDBF80917C068111DCC10E944E
:1008500033036BE473E080E00E94EB0266E573E033
:1008600081E00E94EB028CEDAC968FAFAC978CE0F0
:10087000AD968FAFAD978091000190910101A0914D
:100880000201B0910301A8968CAF9DAFAEAFBFAF90
:10089000A8978091040190910501A0910601B09163
:1008A0000701A4968CAF9DAFAEAFBFAFA49781E018
:1008B0000E94010160E971E080E090E00E94A302E3
:1008C0000E943D02811111C00E9401010E94330368
:1008D00062E673E080E00E94EB026DE673E081E087
:1008E0000E94EB026BE773E072C020E1AE01495B4E
:1008F0005F4F62E0CE0185599F4F0E946E0328969C
:100900008FAD28978F3FA9F429968FAD29978F3FF8
:1009100081F462E370E080E090E00E94A30220E1B5
:10092000AE01495B5F4F62E0CE0185599F4F0E9447
:100930006E0362E370E080E090E00E94A3022EE18B
:10094000AE014F5F5F4F64E0CE018C599F4F0E9414
:100950006E0323E0AE0148595F4F64E0CE01805A38
:100960009F4F0E946E03AA968EAD9FADAA978B5A99
:100970009A406AE070E00E94D10F6D33710580F0FB
:1009800062E370E080E090E00E94A30223E0AE0109
:1009900048595F4F64E0CE01805A9F4F0E946E031A
:1009A00080E00E94010129812F3F99F58A818F3FC4
:1009B00081F50E94330362E973E080E00E94EB025C
:1009C0006DE973E081E00E94EB0269EA73E082E086
:1009D0000E94EB0269E873E083E00E94EB02C059D9
:1009E000DF4F0FB6F894DEBF0FBECDBFDF91CF91C2
:1009F0001F910F91FF90EF90DF90CF90BF90AF903D
:100A00009F908F907F906F905F904F903F902F902E
:100A10000895A9968FADA9978F3F51F4AA969FADDF
:100A2000AA979F3F29F40E94330364EB73E0C5CF7C
:100A300028969FAD28979F3F51F429969FAD2997FF
:100A40009F3F29F40E9433036FEB73E0B6CFFE01A2
:100A5000E95BFF4FDE01A95ABF4FAF01485F5F4F0F
:100A60008D0191919D934E175F07D9F7F80110867C
:100A7000AA96AFACAA97BA2CA82EFBEAAF1AFAE056
:100A8000BF0AC5016AE070E00E94D10FAF967FAF48
:100A90006EAFAF976D33710580F00E94330364EB46
:100AA00073E080E00E94EB0269EC73E081E00E9459
:100AB000EB0269E873E082E090CF8A81582F422FE1
:100AC000E1965FAF4EAFE197CB80DC808D809E805A
:100AD000EF80F88469847A844B845C84C6018C142A
:100AE0009D0408F4C4013E2D2F2D8E159F0510F492
:100AF000382F292F832F922F6816790608F4C30107
:100B000012018415950508F41C010E943303B801F5
:100B100080E00E94EB02E1968EAD9FADE19768EE1A
:100B200073E00E94BD0F9F938F937F936F9386ED29
:100B300093E09F938F938E010F5C1F4F1F930F9332
:100B40000E940C10B80181E00E94EB020FB6F894ED
:100B5000DEBF0FBECDBF98EB29169BE0390638F5F6
:100B600061EE73E0C8010E940510B80182E00E94A6
:100B7000EB02C5016AE070E00E94D10F97FF03C04D
:100B80009195819591099F938F93AF96FFADAF9704
:100B9000FF93AE962FADAE972F938BEE93E09F937E
:100BA0008F931F930F930E940C10B801A0C1C8141B
:100BB000D90408F46401EC14FD0408F476016E1401
:100BC0007F0408F437014614570408F4230142183F
:100BD0005308E3E34E16510488F45F924F928DE080
:100BE00094E09F938F931F930F930E940C100F908C
:100BF0000F900F900F900F900F90B7CF5F924F9282
:100C000081E294E0EECF813009F069C08CED289646
:100C10008FAF28978CE029968FAF29970E943303D6
:100C200064EF73E080E00E94EB0281E00E9401012A
:100C300060E971E080E090E00E94A3020E943D0222
:100C400081110CC00E9401010E94330362E673E02F
:100C500080E00E94EB0260E773E0B4CE20E1AE01D9
:100C60004F5F5F4F62E0CE01895B9F4F0E946E0332
:100C700089818F3F99F48A818F3F81F462E370E02C
:100C800080E090E00E94A30220E1AE014F5F5F4F41
:100C900062E0CE01895B9F4F0E946E0380E00E945C
:100CA000010189818F3F21F48A818F3F09F4CACEE7
:100CB000FE013196DE01D196CE0109968D0121917A
:100CC0002D93E817F907D9F719AE0E94330363ECA7
:100CD00073E080E00E94EB02B80181E079CE8230BF
:100CE00009F06BC08091000190910101A091020177
:100CF000B09103016B968CAF9DAFAEAFBFAF6B975A
:100D000081E00E94010160E971E080E090E00E94D2
:100D1000A3020E943D02882309F4D6CD8CEDA19652
:100D20008FAFA1978CE0A2968FAFA29720E1AE0182
:100D3000495B5F4F62E0CE01805A9F4F0E946E0375
:100D400062E370E080E090E00E94A3022EE1AE0139
:100D50004F5F5F4F64E0CE01895A9F4F0E946E0340
:100D600080E00E940101FE013196CE010D96219195
:100D70002F3F09F058C1E817F907C9F70E9433035C
:100D80006FEF74E080E00E94EB026DE973E0A7CDA5
:100D90003F922F929F938F937F936F9382E094E083
:100DA0009F938F931F930F930E940C100FB6F8948C
:100DB000DEBF0FBECDBFB8010FCE833009F0A0C09B
:100DC0008091040190910501A0910601B091070165
:100DD0002B968CAF9DAFAEAFBFAF2B978CEDA1968E
:100DE0008FAFA1978CE0A2968FAFA2970E9433039A
:100DF0006BE274E080E00E94EB0281E00E9401015E
:100E000060E971E080E090E00E94A3020E943D0250
:100E1000882309F417CF20E1AE014F5C5F4F62E0F9
:100E2000CE01805A9F4F0E946E0362E370E080E023
:100E300090E00E94A30223E0AE01495A5F4F64E0B4
:100E4000CE01895B9F4F0E946E0380E00E940101EA
:100E500068968FAD68978F3F31F469968FAD69972B
:100E60008F3F09F4E0CD69960EAD1FAD699778010B
:100E7000FBEAEF1AFAE0FF0AC7016AE070E00E949D
:100E8000D10F6C010E94330368E374E080E00E949C
:100E9000EB021F930F938DE394E09F938F938E014A
:100EA0000F5F1F4F1F930F930E940C10B80181E03A
:100EB0000E94EB02C601D7FE03C09195819591096E
:100EC0009F938F93C7016AE070E00E94D10F7F93D8
:100ED0006F938BEE93E09F938F931F930F930E94DA
:100EE0000C10B80182E00E94EB0269E873E083E035
:100EF0000E94EB020FB6F894DEBF0FBECDBF6FCDE0
:100F0000843009F04DC08AEAA1968FAFA197A296CE
:100F10001FAEA2970E94330364E474E080E00E9455
:100F2000EB0281E00E94010160E971E080E090E065
:100F30000E94A3020E943D02882309F4C5CC8CEDD7
:100F400068968FAF68978CE069968FAF699720E1BC
:100F5000AE01495B5F4F62E0CE01895A9F4F0E940C
:100F60006E0362E370E080E090E00E94A30228E25A
:100F7000AE014F5F5F4F62E0CE01805A9F4F0E94EB
:100F8000B00380E00E940101FE013196CE018996F6
:100F900021912F3F09F0EEC0E817F907C9F7EECE0F
:100FA0008530A1F40E94330367E774E080E00E947B
:100FB000EB0262E874E081E00E94EB026AE874E010
:100FC00082E00E94EB0265E974E006CD8630A1F470
:100FD0000E94330360EA74E080E00E94EB026DEA55
:100FE00074E081E00E94EB026CEB74E082E00E940E
:100FF000EB0267EC74E0F0CC873009F0F0CC0E9493
:10100000330365ED74E080E00E94EB026EED74E066
:1010100081E00E94EB0268EE74E082E00E94EB0245
:1010200064EF74E0D9CC09811A81CB80DC80AD807B
:10103000BE806F80788489849A844B845C84C601E6
:10104000AC14BD0408F4C501362D272D861597056F
:1010500010F4382F292F832F922F8816990608F421
:10106000C4015C2D4D2DCA14DB0410F45A2D4B2DF8
:10107000252F342F2615370508F49301A401821675
:10108000930608F4A90112014416550608F41A0142
:101090004816590608F4C201281A390A0E94330377
:1010A00088EEE82E83E0F82EC801B7010E94BD0F3C
:1010B0009F938F937F936F9388E095E09F938F9397
:1010C0008E010F5C1F4F1F930F930E940C10B801ED
:1010D00080E00E94EB02C501B7010E94BD0F9F9303
:1010E0008F937F936F93C601B7010E94BD0F9F93AB
:1010F0008F937F936F9386E195E09F938F931F93D8
:101100000F930E940C10B80181E00E94EB02C40111
:10111000B7010E94BD0F9F938F937F936F93C3017D
:10112000B7010E94BD0F9F938F937F936F938CE2C3
:1011300095E09F938F931F930F930E940C100FB60F
:10114000F894DEBF0FBECDBFB80182E00E94EB0273
:10115000C201B7010E94BD0FF3E32F16310408F45A
:1011600017CE3F922F929F938F937F936F9386E139
:1011700094E016CEDC8C0D8D0F70F98CEC880E94FB
:10118000330368EC75E0011102C063E574E080E0B0
:101190000E94EB02F2941F92DF928CE594E09F9301
:1011A0008F938E010F5C1F4F1F930F930E940C10A3
:1011B000B80181E00E94EB028F2D6AE00E94B10F1E
:1011C0001F929F931F928F9385E694E09F938F9336
:1011D0001F930F930E940C10B80182E00E94EB0253
:1011E000E2941F92EF9281E794E09F938F931F9375
:1011F0000F930E940C10D9CC1F920F920FB60F9232
:1012000011242F933F938F939F93AF93BF9380911C
:101210007E0690917F06A0918006B0918106309164
:101220007D0626E6230F2D3728F029EE230F0196A1
:10123000A11DB11D20937D0680937E0690937F06AD
:10124000A0938006B09381068091820690918306D8
:10125000A0918406B09185060196A11DB11D8093D1
:10126000820690938306A0938406B0938506BF916F
:10127000AF919F918F913F912F910F900FBE0F9043
:101280001F901895CF93DF93CDB7DEB7C95BD10917
:101290000FB6F894DEBF0FBECDBF789484B58260E0
:1012A00084BD84B5816084BD85B5826085BD85B50A
:1012B000816085BD80916E00816080936E00109288
:1012C0008100809181008260809381008091810003
:1012D0008160809381008091800081608093800094
:1012E0008091B10084608093B1008091B0008160F2
:1012F0008093B000809191008260809391008091F2
:101300009100816080939100809190008160809332
:1013100090008091A10082608093A1008091A10043
:1013200081608093A1008091A00081608093A000E3
:1013300080917A00846080937A0080917A00826044
:1013400080937A0080917A00816080937A00809106
:101350007A00806880937A001092C10062E082E097
:101360000E94550162E083E00E94550162E084E042
:101370000E94550161E08BE00E94550161E088E028
:101380000E94550180E00E94010187B18F6287B9F8
:10139000409A8FE39CE90197F1F700C00000409864
:1013A000AFE3BCE91197F1F700C00000409AEFE30A
:1013B000FCE93197F1F700C0000082EE0E94E802DC
:1013C0008CE20E94E8028EE20E94E8028FE20E9414
:1013D000E80288EF0E94E80280E00E94E80285E2CD
:1013E0000E94E80281E80E94E80280E20E94E8028E
:1013F00082EA0E94E80288EC0E94E80280EA0E94E9
:10140000E80286EA0E94E8028FEA0E94E8026AE0A7
:1014100070E080E090E00E94A3020E94330362E447
:1014200075E080E00E94EB0260E575E081E00E94DB
:10143000EB026DE575E082E00E94EB0268EE73E07E
:1014400080E090E00E94A30210927C060E940804B3
:10145000A0900801B0900901E0900A018E010D5999
:101460001F4FCA54DF4FA882C65BD040C954DF4F1C
:10147000B882C75BD040C854DF4FE882C85BD04019
:101480008091000190910101A0910201B0910301AE
:10149000C255DF4F88839983AA83BB83CE5AD0403D
:1014A0008091040190910501A0910601B09107017E
:1014B000CE54DF4F88839983AA83BB83C25BD0401D
:1014C000C754DF4FA882C95BD0402B2C3E2C82E052
:1014D0000E944D03882359F080917C068111D6C06B
:1014E00087E080937C060E94080410927B0683E0CC
:1014F0000E944D03882361F080917C068F5F8830C5
:1015000008F0C6C080937C060E94080410927B06F7
:1015100080917C06853009F0C9C384E00E942C01CB
:10152000892B09F0ABC06EE170E080E090E00E9492
:10153000A30284E00E942C01892B09F09FC08FB781
:10154000F89440907E0650907F06609080067090E0
:1015500081068FBF84E00E942C01892B09F08EC088
:101560002FB7F89480917E0690917F06A091800617
:10157000B09181062FBF84199509A609B709883B48
:101580009B40A105B10530F384E00E942C01892B1A
:10159000D9F36EE170E080E090E00E94A302F09049
:1015A0007B068CEDF11070C1CC55DF4F8883C45A97
:1015B000D0408CE0CB55DF4F8883C55AD040C25510
:1015C000DF4F88819981AA81BB81CE5AD040CB560A
:1015D000DF4F88839983AA83BB83C559D040CE54FB
:1015E000DF4F88819981AA81BB81C25BD040CF56F1
:1015F000DF4F88839983AA83BB83C159D0408AEA8D
:10160000C156DF4F8883CF59D040C056DF4F188274
:10161000C05AD0400E94330369E675E080E00E9422
:10162000EB026BE473E081E00E94EB0281E00E9438
:10163000010160E971E080E090E00E94A3020E9455
:101640003D02811128C00E9401010E94330362E61D
:1016500073E080E00E94EB0260E773E081E00E94AB
:10166000EB0269EA73E082E00E94EB0269E873E052
:1016700083E00E94EB0281E080937B0680E090E0B3
:10168000892B09F424CF0E94000021CF815029CF5B
:1016900010927C0639CF20E1AE014F575F4F62E0D8
:1016A000CE018C559F4F0E946E0362E370E080E094
:1016B00090E00E94A3022EE1AE014D5C5F4F64E01A
:1016C000CE018B569F4F0E946E0362E370E080E074
:1016D00090E00E94A30223E0AE0144565F4F64E015
:1016E000CE018F569F4F0E946E0362E370E080E050
:1016F00090E00E94A30228E2AE014F5F5F4F62E0DC
:10170000CE0181569F4F0E94B00380E00E940101EC
:101710008BA98F3F19F48CA98F3F71F0C356DF4F0F
:101720008881CD59D040C456DF4F9881CC59D040E4
:101730009F3F61F48F3F51F40E9433036FEF74E0D9
:1017400080E00E94EB026DE973E088CF4DA95EA9AD
:10175000AFA9B8AD29AD3AAD8BAD9CAD6DAD7EAD49
:101760006A01A417B50708F46D01F901C216D30682
:1017700008F4F6016C01E817F90708F46F01FB01A2
:10178000C616D70608F4F6014A175B0708F4AD0140
:101790002417350708F49A016C018217930708F49F
:1017A0006901C616D70608F46B01CE1ADF0AC456C3
:1017B000DF4F88819981CC59D0408B5A9A406AE09A
:1017C00070E00E94D10F662E572E8D8D8F70782E6F
:1017D00093E3C916D10430F4FF24F394E83BFB40B3
:1017E00008F4F12C862C952C0E94330369E675E0F1
:1017F00080E00E94EB02FF20E9F1DF92CF9285E7C3
:1018000095E09F938F931F930F930E940C100F905E
:101810000F900F900F900F900F90B80181E00E94F1
:10182000EB02B3E38B16910450F55F926F9282E95D
:1018300095E09F938F931F930F930E940C100F902E
:101840000F900F900F900F900F90B80182E00E94C0
:10185000EB0265EA75E0772009F40ACFFF2039F042
:1018600063EB75E0E3E38E16910408F401CF61ECBD
:1018700075E0FECEDF92CF9283E895E0C2CF5F9213
:101880006F928BE995E0D5CFC455DF4F8883CC5A52
:10189000D0408CE0C355DF4F8883CD5AD040C2552D
:1018A000DF4F88819981AA81BB81CE5AD040CB5627
:1018B000DF4F88839983AA83BB83C559D040CE5418
:1018C000DF4F88819981AA81BB81C25BD040CF560E
:1018D000DF4F88839983AA83BB83C159D0408AEAAA
:1018E000C655DF4F8883CA5AD040C555DF4F18828E
:1018F000CB5AD0400E9433036FEC75E080E00E9429
:10190000EB026DED75E081E00E94EB0281E00E9448
:10191000010160E971E080E090E00E94A3020E9472
:101920003D0281111BC00E9401010E94330362E647
:1019300073E080E00E94EB0260E773E081E00E94C8
:10194000EB0269EA73E082E00E94EB0269E873E06F
:1019500083E00E94EB0210927B0690CE20E1AE0164
:101960004F575F4F62E0CE0184559F4F0E946E0338
:1019700062E370E080E090E00E94A3022EE1A80103
:1019800064E0CE018B569F4F0E946E0362E370E0CD
:1019900080E090E00E94A30223E0AE0141565F4F39
:1019A00064E0CE018F569F4F0E946E0362E370E0A9
:1019B00080E090E00E94A30228E2AE014D5C5F4F00
:1019C00062E0CE0186559F4F0E94B00380E00E94E6
:1019D0000101D8018C918F3F21F411968C918F3F9A
:1019E00071F0C056DF4F8881C05AD040C156DF4FDA
:1019F0009881CF59D0409F3F89F48F3F79F40E945E
:101A000033036FEF74E080E00E94EB026DE973E056
:101A100081E00E94EB026AEA75E095CFF8016281ED
:101A20007381A481B5814681578120853185828566
:101A300093856B01A617B70708F46D01FA01C41668
:101A4000D50608F4F6016901E217F30708F46F01FF
:101A5000FC01C816D90608F4F6016A177B0708F4DA
:101A6000BD014617570708F4AB012417350708F4E2
:101A70009A0160964FAD60974F708217930708F4F4
:101A8000C9018E1B9F0BC39708F02DC2FF24F3944E
:101A9000E83B2BE0F20708F4F12C411110C00E9442
:101AA000330363E574E080E00E94EB026AEA75E0CC
:101AB00081E00E94EB0269EE75E082E020C0E83B25
:101AC000FB4078F0C156DF4F88819981CF59D040D3
:101AD0008B5A9A406AE070E00E94D10F633371051F
:101AE00098F00E94330361EC75E080E00E94EB0205
:101AF00068EF75E0FF2011F065E076E081E00E947C
:101B0000EB0260EF75E024CF0E94330362E176E0E0
:101B100080E00E94EB026FE176E081E00E94EB0240
:101B20008AEAC855DF4F8883C85AD040C755DF4F6F
:101B30001882C95AD0408CEDCA55DF4F8883C65AE7
:101B4000D0408CE0C955DF4F8883C75AD040C75476
:101B5000DF4F9881C95BD040C456DF4F9883CC5982
:101B6000D040C356DF4F2882CD59D040C256DF4FF8
:101B70003882CE59D0408AEDCC55DF4F8883C45A85
:101B8000D04084E0CB55DF4F8883C55AD04081E0F8
:101B90000E94010160E971E080E090E00E94A302F0
:101BA00028E2AE014F5F5F4F62E0CE0188559F4F44
:101BB0000E94B00380E00E94010162E370E080E0D7
:101BC00090E00E94A30281E00E94010160E971E0BF
:101BD00080E090E00E94A30220E1AE014F5F5F4FE2
:101BE00062E0CE018A559F4F0E946E0380E00E9402
:101BF000010162E370E080E090E00E94A30281E0D6
:101C00000E94010160E971E080E090E00E94A3027F
:101C100029E0AE014F5F5F4F63E0CE0184569F4FD6
:101C20000E94B003D98480E00E94010162E370E069
:101C300080E090E00E94A30281E00E94010160E93F
:101C400071E080E090E00E94A30229E0AE014F5FC6
:101C50005F4F62E0CE018C559F4F0E94B003F98424
:101C600080E00E940101A6E0DA1202C0FA1679F0C3
:101C70000E94330362E176E080E00E94EB0262EAB8
:101C800073E081E00E94EB0269EA73E016CF0E94E4
:101C9000330362E176E080E00E94EB026AE276E0E4
:101CA00081E00E94EB0267E376E007CF873009F01E
:101CB00011C184E00E942C01892B09F0DFCC6EE178
:101CC00070E080E090E00E94A30284E00E942C017A
:101CD000892B09F0D3CC8FB7F89440907E065090B2
:101CE0007F0660908006709081068FBF84E00E941E
:101CF0002C01892B09F06BC02FB7F89480917E06D8
:101D000090917F06A0918006B09181062FBF841923
:101D10009509A609B7098C3D9540A105B10530F399
:101D200084E00E942C01892BD9F36EE170E080E001
:101D300090E00E94A302CA54DF4FF881C65BD040F6
:101D4000C756DF4FF883C959D040C954DF4F2881A7
:101D5000C75BD040C656DF4F2883CA59D040C8540D
:101D6000DF4F8881C85BD040C556DF4F8883CB5991
:101D7000D0408AEDCE55DF4F8883C25AD04084E3ED
:101D8000CD55DF4F8883C35AD04081E00E940101C6
:101D900060E971E080E090E00E94A3020E943D02B1
:101DA00081117DC080E00E9401010E94330365ED36
:101DB00074E080E00E94EB026BE676E081E00E9436
:101DC000EB026CE576E083E00E94EB0257CC6EE11B
:101DD00070E080E090E00E94A302ABAABCAAEDAA4A
:101DE0008AEDD8018C9381E311968C9381E00E9457
:101DF000010160E971E080E090E00E94A30229E027
:101E0000FE0131966F01AF0163E0CE01C3960E94DF
:101E1000B003F984F092780680E00E94010162E349
:101E200070E080E090E00E94A30281E00E94010146
:101E300060E971E080E090E00E94A30229E0A60141
:101E400062E0C8010E94B00399849092790680E014
:101E50000E94010181E080937A060E94330363E4CB
:101E600076E080E00E94EB021F929F921F92FF9209
:101E700080E596E09F938F93DF92CF920E940C10A3
:101E8000B60181E00E94EB026CE576E083E00E94FF
:101E9000EB020FB6F894DEBF0FBECDBFEFCB29E04B
:101EA000AE014F5F5F4F63E0CE0187569F4F0E94A8
:101EB000B00364E670E080E090E00E94A30229E0B5
:101EC000AE014F5F5F4F62E0CE018E559F4F0E9483
:101ED000B00368CF84E00E944D03882309F4CECB81
:101EE0000E940804CBCBF12C442309F4D8CDF9CDC2
:101EF00060E086E00E945501E6EFF0E0E491A6E89C
:101F0000B6E0EC93EEEDF0E0E491F0E0EE0FFF1FB1
:101F1000E054FF4F8591949112969C938E93119764
:101F20001B961C921B971D961C921D971C961C922B
:101F30001C971A961C921A9719961C921997189624
:101F40001C92189717961C92179716961C92169724
:101F500015961C92159714961C92149713961C9222
:101F60000895991B79E004C0991F961708F0961BF5
:101F7000881F7A95C9F780950895AA1BBB1B51E16C
:101F800007C0AA1FBB1FA617B70710F0A61BB70BE9
:101F9000881F991F5A95A9F780959095BC01CD018E
:101FA000089597FB072E16F4009407D077FD09D00B
:101FB0000E94BD0F07FC05D03EF4909581959F4F80
:101FC0000895709561957F4F0895EE0FFF1F05905E
:101FD000F491E02D09940E94F60FA59F900DB49FF7
:101FE000900DA49F800D911D11240895A29FB00112
:101FF000B39FC001A39F700D811D1124911DB29F3D
:10200000700D811D1124911D0895FB01DC010190CB
:102010000D920020E1F70895AEE0B0E0E2E1F0E1DA
:102020000C94BB120D891E8986E08C831A83098368
:102030008FEF9FE79E838D83AE01475E5F4F6F8971
:10204000788DCE0101960E942F102F813885020FC6
:10205000131FF80110822E96E4E00C94D712ABE027
:10206000B0E0E5E3F0E10C94AD127C013B018A01A4
:10207000FC0117821682838181FFC8C1CE010196BF
:102080005C01F7019381F30193FD859193FF8191A9
:102090003F01882309F453C1853239F493FD8591BA
:1020A00093FF81913F01853229F4B70190E00E94AE
:1020B0001F12E7CF912C212C312CFFE1F31538F0C2
:1020C0008B3211F190F4803209F1833229F137FC1F
:1020D0003CC020ED280F2A3050F536FE20C08AE0A3
:1020E000989E200D1124922E06C08D3291F08033DF
:1020F00071F7689430F8F30193FD859193FF819116
:102100003F018111DACF21C0689431F8689432F828
:10211000F2CF689433F8EFCF689434F8ECCFEAE06C
:102120002E9E200D1124222E689435F8E4CF8E3295
:1021300029F436FC04C1689436F8DDCF8C3619F4E6
:10214000689437F8D8CF8836B1F2982F9F7D955490
:102150009330E0F08336A1F18337C1F1833509F084
:1021600063C02801F2E04F0E511CF801C080D180FD
:10217000692D70E036FC02C06FEF7FEFC6010E9450
:1021800009124C01689437F882010AC00C5F1F4F96
:10219000FFE3F98388248394912C6501E89437F850
:1021A00033FE2DC0522C8114910471F5552009F491
:1021B00068CFB70180E290E00E941F125A94F6CFD8
:1021C000F801808189830E5F1F4FE4CF2801F2E080
:1021D0004F0E511CF801C080D180692D70E036FC93
:1021E00002C06FEF7FEFC6010E9414124C01820102
:1021F000D5CFB70180E290E00E941F122A942814E4
:10220000190409F0B0F7CECFF60137FC859137FEFF
:1022100081916F01B70190E00E941F1251105A94F2
:10222000F1E08F1A9108BFCF843619F0893609F092
:1022300077C0F80137FE6BC0608171818281938124
:102240000C5F1F4FF32DFF763F2E97FF09C090952F
:102250008095709561957F4F8F4F9F4F689437F8A9
:102260002AE030E0A5010E944F12C82ECA188C2C1B
:10227000432C36FE0CC0E89440F8C91440F434FEF8
:1022800005C032FC03C0F32DFE7E4F2E892C44FE88
:1022900095C0FE01EC0DF11D8081803309F087C0EF
:1022A000242D297E422E842D8870582E43FC95C003
:1022B00040FE8FC09C2C821418F42C0C922C981881
:1022C00044FE91C0B70180E390E00E941F1242FEDD
:1022D00009C088E790E041FE02C088E590E0B701C0
:1022E0000E941F12C91408F48AC0CA94D12C9FEF0F
:1022F000C91AD90ACA0CDB1CF60182916F01B70119
:1023000090E00E941F12AC14BD04B1F74FCF608162
:102310007181072E000C880B990B0E5F1F4F92CF17
:10232000D32CE894D4F82AE030E0853739F1232D16
:10233000297FD22E8F3601F148F48835A9F0F701B4
:10234000868197812B96E2E10C94C912803749F07F
:102350008837A9F7D4FE02C06894D2F820E130E0B3
:102360000DC06894D4F8F6CF34FE03C0822F866087
:10237000D82E20E132E002C028E030E0F801D7FE9C
:102380000FC060817181828193810C5F1F4FA50115
:102390000E944F12C82ECA183D2CE89437F867CF18
:1023A0006081718190E080E00E5F1F4FF0CF42FCB2
:1023B00002C0839478CF8394839475CF842D8678DC
:1023C00009F471CFF6CFB70180E290E00E941F12AE
:1023D00083948214C0F3512C73CF522C581882145A
:1023E00008F46ECFF8CF842D867809F47BCF8BE28A
:1023F00041FE80E247FC8DE2B70190E071CFB7016A
:1024000080E390E00E941F129A946CCF8FEF9FEFB1
:1024100099CFFC010590615070400110D8F780956C
:1024200090958E0F9F1F0895FC01615070400190A0
:102430000110D8F7809590958E0F9F1F08950F93E8
:102440001F93CF93DF93182F092FEB018B8181FD11
:1024500009C01FEF0FEF812F902FDF91CF911F91B8
:102460000F91089582FF14C02E813F818C819D8140
:10247000281739073CF4E881F981CF010196998347
:10248000888310838E819F8101969F838E83E3CF03
:10249000E885F985812F0995892BA1F3DACFFA0117
:1024A000AA27283051F1203181F1E8946F936E7F93
:1024B0006E5F7F4F8F4F9F4FAF4FB1E03ED0B4E084
:1024C0003CD0670F781F891F9A1FA11D680F791FC5
:1024D0008A1F911DA11D6A0F711D811D911DA11DD6
:1024E00020D009F468943F912AE0269F11243019E6
:1024F000305D3193DEF6CF010895462F4770405D81
:102500004193B3E00FD0C9F7F6CF462F4F70405D2F
:102510004A3318F0495D31FD4052419302D0A9F78A
:10252000EACFB4E0A6959795879577956795BA9584
:10253000C9F700976105710508959B01AC010A2E4A
:1025400006945795479537952795BA95C9F7620F21
:10255000731F841F951FA01D08952F923F924F92C5
:102560005F926F927F928F929F92AF92BF92CF9223
:10257000DF92EF92FF920F931F93CF93DF93CDB72C
:10258000DEB7CA1BDB0B0FB6F894DEBF0FBECDBFA4
:1025900009942A88398848885F846E847D848C8475
:1025A0009B84AA84B984C884DF80EE80FD800C817E
:1025B0001B81AA81B981CE0FD11D0FB6F894DEBF61
:0C25C0000FBECDBFED010895F894FFCFD1
:1025CC00D70000FFD70E0002D996A500000000002E
:1025DC000000005F000000000700070000147F14DB
:1025EC007F1400242A7F2A12002313086462003609
:1025FC004955225000000503000000001C22410038
:10260C00000041221C000014083E08140008083E7B
:10261C0008080000503000000008080808080000F6
:10262C0060600000002010080402003E5149453E45
:10263C000000427F40000042615149460021414563
:10264C004B31001814127F10002745454539003CCA
:10265C004A49493000017109050300364949493698
:10266C0000064949291E0000363600000000563687
:10267C00000000081422410000141414141400006B
:10268C004122140800020151090600324959513EF9
:10269C00007E1111117E007F49494936003E4141AF
:1026AC004122007F4141221C007F49494941007F62
:1026BC0009090901003E4149497A007F0808087F51
:1026CC000000417F4100002040413F01007F081481
:1026DC002241007F40404040007F020C027F007F7F
:1026EC000408107F003E4141413E007F0909090664
:1026FC00003E4151215E007F091929460046494997
:10270C0049310001017F0101003F4040403F001F63
:10271C002040201F003F4038403F006314081463E2
:10272C0000070870080700615149454300007F41CC
:10273C00414100020408102000004141417F000487
:10274C00020102040040404040400000010204002D
:10275C0000002054545478007F48444438003844D6
:10276C0044442000384444487F00385454541800E2
:10277C00087E0901020018A4A4A47C007F080404AC
:10278C00780000447D4000004080847D00007F1074
:10279C002844000000417F4000007C0418047800AD
:1027AC007C0804047800384444443800FC24242475
:1027BC00180018242418FC007C0804040800485451
:1027CC0054542000043F444020003C4040207C00F6
:1027DC001C2040201C003C4030403C004428102869
:1027EC0044001CA0A0A07C004464544C4400000095
:1027FC0000000000000000000000000000000000CD
:10280C0000000000000000000000005265616469D7
:10281C006E672E2E2E00506C656173652077616992
:10282C0074004E6F2042617474657279006F72206F
:10283C00436F6D6D204572726F7200436865636BF8
:10284C0020636F6E74616374004F4B3D52657472FC
:10285C0079004261642056204461746100526561C4
:10286C0064204661696C656400436865636B207025
:10287C00696E7300426164205420446174610042AB
:10288C006164204D6F64656C0054656D7020696ED9
:10289C0076616C696400503A25752E253033755677
:1028AC00004C4F572043454C4C2100543A25642E84
:1028BC002564430052656164696E67206D6F6465C1
:1028CC006C0043353A25752E2530337520443A2556
:1028DC00756D204F4B0043353A25752E25303375D9
:1028EC0020443A25756D204241440052656164696B
:1028FC006E6720542E2E2E0054656D700052617739
:10290C003A25750052656164696E67207374617451
:10291C00757300554E4C4F434B454400533A307839
:10292C0025303258004361703A25752E2575416863
:10293C000054793A2575005265736574204D656EA7
:10294C0075004775617264656400486F6C64204F54
:10295C004B20337300327820686F6C64204F4B002F
:10296C0046573A537475647920763131004D43558E
:10297C003A41546D65676133323850004C43443AE8
:10298C00535437353637005265736574206775615B
:10299C0072646564004C45442054657374004F4B5D
:1029AC003D4C4544204F4E00486F6C64204F4B3DCE
:1029BC004F46460055502F444E3D457869740042B1
:1029CC0061642044617461005061636B3A25752E1B
:1029DC0025303375560043313A25752E2530337525
:1029EC002043323A25752E253033750043333A2572
:1029FC00752E253033752043343A25752E2530330A
:102A0C0075004D616B697461205465737465720057
:102A1C0053747564792046572076313100537461B4
:102A2C007274696E672E2E2E005265736574204386
:102A3C006865636B0043656C6C204F4B20443A25F2
:102A4C00756D0043656C6C2042414420443A2575F9
:102A5C006D0054204F4B3A256443005420424144AE
:102A6C003A25644300554E4C4B3A4E6F20726573B9
:102A7C006574004C4F434B3A5374756479204F4B3B
:102A8C0000524553455420424C4F434B4544005251
:102A9C006573657420457865637574650043686576
:102AAC00636B696E672E2E2E006E6565646564001F
:102ABC004F4B3D4261636B0043656C6C2070726FD1
:102ACC00626C656D0054656D702070726F626C6520
:102ADC006D00436C656172204572726F72730053A6
:102AEC00656E64696E672E2E2E00436F6D6D616E80
:102AFC00642073656E740052656164207374617434
:102B0C007573004C4544204F4E2044656275670038
:102B1C00413A253032582025303258004F4B3D4F2A
:102B2C004E20486F6C643D4F4646004C4544204F48
:082B3C0046462073656E74002B
:00000001FF
